:030000000201EC0E
:030003000201BA3D
:03000B00020137B8
:03002B000201616E
:03003B00020414A8
:10003E00C000788500D8FDD00022C000C00179280C
:10004E007868D8FED9FADAF6D001D00022D294120E
:10005E00003EC29422A2E79283A2E69282A2E59289
:10006E0081A2E4928012005B12003EA2E39283A270
:10007E00E29282A2E19281A2E0928012005B22D2F1
:10008E0093020063C293020063C294C0027A2812E4
:10009E000048D002743312009274331200927432FC
:1000AE001200927428120092740E120092740112B1
:1000BE000092C0027A02120048D00222E493600637
:1000CE0012008DA380F62244404480020092C0E0CC
:1000DE00E8C4540F443012008DE8540F443012001F
:1000EE008DD0E02254696D65202031323A30303A9D
:1000FE00303000416C61726D2031323A3030002068
:10010E004F4E004F464600414D00504D00414D00B0
:10011E00504D00438E08E58954F04401F589758CE5
:10012E00F0758A2CD2A9D28C22C28C758CF0758A6D
:10013E002CD28CB2973275C80075CDBF75CC2843C2
:10014E00C98075CBBF75CA28E4F530F531439B8263
:10015E00D2CA22C2CFC0E0C0D00530E53070020551
:10016E0031E530B4E841E531B4033CD200B28CE461
:10017E00F530F531E532309104240180022499D412
:10018E00F532B46022753200E5332401D4F533B470
:10019E006015753300E5342401D4F534B41202B27F
:1001AE0003B41303753401D0D0D0E032C0E0C0D018
:1001BE00200114E5342401D4F534B41202B203B490
:1001CE0013177534018012E5362401D4F536B412B6
:1001DE0002B202B41303753601D0D0D0E03275816D
:1001EE007F75B10075B20075B30075B40075AD00C2
:1001FE0075AC0053B37E43B48112012112014475D4
:10020E003200753300753412753500753612C20121
:10021E00C202C203D290D2AFD2A8D28875E9997524
:10022E00EA46439B02120097740C120092C0E074CF
:10023E0001141200D7D0E0C083C082C0E09000F25B
:10024E001200CAD0E0D082D083C0E0740114120034
:10025E00D5D0E0C083C082C0E09001011200CAD0A8
:10026E00E0D082D083C0E0740E141200D5D0E0C06E
:10027E0083C082C0E09001111200CAD0E0D082D0BB
:10028E0083D20075320020844EC0027A32120048AA
:10029E00D0022084423084FDB20120011EC0E074E1
:1002AE000E141200D5D0E0C083C082C0E0900111C0
:1002BE001200CAD0E0D082D083801CC0E0740E142D
:1002CE001200D5D0E0C083C082C0E090010D1200B4
:1002DE00CAD0E0D082D083209218C0027A321200A7
:1002EE0048D00220920C3092FD200104B20380020D
:1002FE00B20220951CC0027A32120048D00220951C
:10030E00103095FDC2CAE4F530F531F532D2CA800F
:10031E0006200003020294C200C0E074071412000B
:10032E00D7D0E0C000A8341200DCD000C0E0740AC0
:10033E00141200D7D0E0C000A8331200DCD000C0E9
:10034E00E0740D141200D7D0E0C000A8321200DC09
:10035E00D000C0E0740F141200D7D0E0200314C0F8
:10036E0083C082C0E09001151200CAD0E0D082D0C6
:10037E00838012C083C082C0E09001181200CAD0E0
:10038E00E0D082D083C0E07407141200D5D0E0C054
:10039E0000A8361200DCD000C0E0740A141200D59A
:1003AE00D0E0C000A8351200DCD000C0E0740C1400
:1003BE001200D5D0E0200214C083C082C0E09001AC
:1003CE001B1200CAD0E0D082D0838012C083C082BC
:1003DE00C0E090011E1200CAD0E0D082D083E53476
:1003EE00B5361AE533B5351520030520020F800307
:1003FE0030020A300107D2A9D290020294C2A9C2D9
:10040E0097C290020294C0E0C0D0E5EC75EC00F506
:10041E00F05440602120010FE5332401D4F533B4AC
:10042E0060037533008022E5352401D4F535B460C0
:10043E00037535008013E5F05402600DE53224019A
:0E044E00D4F532B46003753200D0D0D0E03265
:00000001FF
