:0300000002009764
:0300030002016790
:10001300020196C000788500D8FDD00022C000C040
:100023000179287868D8FED9FADAF6D001D000220F
:10003300D294120016C29422D293020045C29302B4
:100043000045A2E79283A2E69282A2E59281A2E40E
:100053009280120033A2E39283A2E29282A2E192FF
:1000630081A2E0928012003322C2947A28120020E7
:10007300743312004074331200407432120040741F
:1000830028120040740C12004074011200407A02DE
:100093001200202275817F75B10075B20075B3001F
:1000A30075B40075AC0075AD0012006C748012005D
:1000B30040744412003B7481120040746112003B8F
:1000C3007482120040746E12003B748312004074F9
:1000D3006912003B7484120040746512003B7485FE
:1000E300120040746C12003B74861200407420129C
:1000F300003B7487120040744E12003B7488120058
:1001030040746712003B74C0120040743312003B0A
:1001130074C1120040743812003B74C21200407460
:100123003312003B74C3120040743212003B74C498
:10013300120040743712003B74C51200407434122D
:10014300003B74C6120040743612003B74C71200A1
:1001530040743612003BD2AFD2A8D2AAD288D28A38
:10016300D2B880FEC0E0C0D0C082C0837401120048
:10017300407A021200209001CF7B00EB93600B12B8
:10018300003B7A961200200B80F1D083D082D0D02E
:10019300D0E032C0E0C0D0C082C0837401120040FE
:1001A3007A0212002074C01200407A0212002090DA
:1001B30001DE7B00EB93600B12003B7A961200206A
:1001C3000B80F1D083D082D0D0D0E03248656C6C04
:1001D3006F20454C454332393121002054686973FF
:0C01E300206973204C6162203120200054
:00000001FF
